:0200000079295C
:10000600710DF80DF90D7408F8027508031C750FCB
:10001600F902F00DF10D0F30FC00710DF80DF90D20
:100026007408701C1C28F8027508031C750FF90269
:100036002128F80775080318750FF907F00DF10D5B
:10004600FC0B102870182D287408F807750803187B
:08005600750FF9070000080016
:10005E00831203137408003A031D3E287508003AF4
:10006E00031D3E28FF30F0007F30F10097288312E9
:10007E000313FD01F901F80171087004031900342E
:10008E0071087506FA00FA1BFD09FB01F51F5428CD
:10009E00F409F509F40A0319F50AF11F5B28F009B2
:1000AE00F109F00A0319F10A71087504FA00FA1B36
:1000BE00702803207B188328FD1F0034F009F109F6
:1000CE00F00A0319F10AF809F909F80A0319F90AED
:1000DE000034F51F7F28F11B7B287108F90070088A
:1000EE00F800F101F0016328F101F001F00A00348B
:1000FE00F109F009FB0A6028F80A0319F90A7408D5
:10010E007802031D632875087902031D6328F9011F
:10011E00F801F00A0319F10AF11F63280000FF34F9
:02012E000800C7
:0E013000831203133B088A003A08820008007D
:10013E008312031307143E08A8003F08A90080305D
:10014E002906F00080307002031DAF28003028020F
:10015E00031C6C293B30AA000030AB0080302B060C
:10016E00F00080307002031DBE2800302A02031CEE
:10017E0067290A30F4000030F5002808F00029083D
:10018E00F1002F207008A6007108A7000A30F400B5
:10019E000030F5002808F0002908F1002F2078081B
:1001AE00F0007908F1007008A0007108A1000A3073
:1001BE00F4000030F5002A08F0002B08F1002F2083
:1001CE007008A2007108A3000A30F4000030F50098
:1001DE002A08F0002B08F1002F207808F00079088B
:1001EE00F1007008A4007108A500AC01AD018030CB
:1001FE002D06F00080307002031D072932302C02CC
:10020E0003186229071D0E29871D0E291D29083086
:10021E00FB009D30FC000530FD00FD0B1429FC0B8E
:10022E001429FB0B1429000000006C290712260864
:10023E002E3E8400000886002130FC007630FD0042
:10024E00FD0B2729FC0B2729000007168712200813
:10025E002E3E84008030000786002130FC00763070
:10026E00FD00FD0B3829FC0B3829000087160713FB
:10027E0022082E3E8400000886002130FC007630D5
:10028E00FD00FD0B4829FC0B4829000007178713BA
:10029E0024082E3E8400000886002130FC007630B3
:1002AE00FD00FD0B5829FC0B582900008717AC0ADE
:1002BE000319AD0AFE280130AA02031CAB03B528B0
:0C02CE000130A802031CA903A6280800A8
:1002DA0098208A110A128000840ABA0A0319BB0AF2
:0802EA00F003031D6D2908005B
:1002F20083120313A001A101A201A301A401A5017C
:10030200A601A701A801A901AA01AB01AC01AD0197
:100312003F30AE000630AF005B30B0004F30B1006E
:100322006630B2006D30B3007D30B4000730B500E6
:100332007F30B6006F30B700B801B901831686016D
:10034200831287158719A7290711A829071583166C
:100352008713871BAE290713AF290717071BB3297A
:100362008712B4298716871AB8290712B9290716DE
:10037200071ABD290710BE29071483128717871B86
:10038200C4290713C5290717071BC9298712CA29B8
:100392008716871ACE290712CF2907160A30F400CA
:1003A2000030F5003808F0003908F1002F207008FD
:1003B200BC007108BD003C08A6003D08A7000A3039
:1003C200F4000030F5003808F0003908F1002F2061
:1003D2007808F0007908F1007008A0007108A10007
:1003E20007123C082E3E8400000886002130FC00E3
:1003F2007630FD00FD0BFB29FC0BFB2900000716E4
:10040200871220082E3E8400000886002130FC005E
:100412007630FD00FD0B0B2AFC0B0B2A0000871621
:100422000719252A0630FB001330FC00AD30FD0011
:10043200FD0B192AFC0B192AFB0B192A00000000DC
:10044200B80A0319B90A412A8719412A0830FB0060
:100452009D30FC000530FD00FD0B2D2AFC0B2D2AE2
:10046200FB0B2D2A0000000001303802BE000030D4
:10047200031C013E3902BF009F200710B801B901D9
:04048200CF29422A12
:02400E0012009E
:00000001FF
